:10000000A811002071070000DF4900005D07000013
:100010005D0700005D0700005D0700005D07000050
:100020000000000000000000000000007D0800004B
:100030005D070000000000003D0800005D070000B3
:10004000ED090000ED090000ED090000ED090000D8
:10005000ED090000ED090000ED090000ED090000C8
:10006000ED090000ED090000ED090000ED090000B8
:10007000ED090000ED090000ED090000ED090000A8
:10008000ED090000ED090000ED090000ED09000098
:10009000ED090000ED090000ED090000ED09000088
:1000A000ED090000ED090000ED090000ED09000078
:1000B000ED090000ED090000ED090000ED09000068
:1000C000ED090000ED090000ED090000ED09000058
:1000D000ED090000ED090000ED090000ED09000048
:1000E000ED090000ED090000ED090000ED09000038
:1000F000ED090000ED090000ED090000ED09000028
:10010000ED090000ED090000ED090000ED09000017
:10011000ED090000ED090000ED090000ED09000007
:10012000ED090000ED090000ED090000ED090000F7
:10013000ED090000ED090000ED090000ED090000E7
:10014000ED090000ED090000ED090000ED090000D7
:04015000ED090000B5
:1001540037B51A4805F037F8184C58B3204605F05F
:1001640032F838B34FF4D011154804F046FA002899
:1001740022DB4FF48031134804F03FFA00281BDBE4
:100184002569A36820465B6801A9984720B92A68B5
:10019400019B53401B02F4D5A3684FF080512046C5
:1001A4005B699847002807DB00214FF4004003F007
:1001B400BFFDE6E74FF0FF3003B030BD8C550000C3
:1001C40000580000F8570000014B1B68184700BF97
:1001D40000000020014B1860704700BF00000020A1
:1001E40030B585B004460D4610220021684605F05E
:1001F4001BF902238DF80230044B2A462146684637
:10020400019303F09FFF05B030BD00BFCD01000096
:1002140080B505460E461746984603F0A7FD0346EB
:1002240005F06CF90446DFF81890424649F80030AE
:1002340039463046A84754F8090000F0AFFA00BF29
:10024400080000002DE9F047058B04462807904676
:1002540011D4022905F0070540F0CC80204604F0B3
:10026400DAFA78B10138218B042811D8DFE800F0DC
:10027400C2106D85950001290CBF45F0100545F0AD
:100284002005258388F31188BFF36F8FBDE8F087BD
:1002940001F0070AAA4500F0A5800027B9463E46AA
:1002A400A368002B00F0BC8041F00801218388F38F
:1002B4001188BFF36F8FA168002900F0BA800D6820
:1002C400002900F0B680334652462046D1F8048017
:1002D400C047002D76D02B6829461D46F0E701F073
:1002E40007035A1F012A1BD8002221F00701062BFD
:1002F400276889B2C4E9002209D13B4603E0628B36
:10030400013262831B68002BF9D141F002012046BF
:10031400218304F080FA00287AD041F0200176E0AD
:10032400042B0AD121F0070189B22046218304F06D
:1003340072FA10B141F020012183218B01F0070AE8
:10034400AA454FD00027B946AAE7236921F007013F
:1003540041F00601062DD3F8009021832DD1B9F187
:10036400000F3FD041F00801218388F31188BFF3C7
:100374006F8F20463949C84729E021F007012369D6
:1003840041F0040189B2042DD3F804902183E6D00E
:1003940000274FF0040A3E4682E721F00701236953
:1003A40041F0050189B2052DD3F808902183D6D0F8
:1003B40000274FF0050A3E4672E700274FF0060A71
:1003C4003E466DE72B4687E7B9F1000FD1D1EFF335
:1003D4001188202383F31288BFF36F8F238B23F0BC
:1003E40008032383258BEA062ED525F010032383E7
:1003F40005F007056669218B002EBFF670AF002358
:100404002768C4E9003321F0070141F00101218389
:10041400218B4FF0000901F0070AAA457FF440AF91
:10042400002F9CD041F00801218388F31188BFF389
:100434006F8F002FC8D03D68394633465246204658
:1004440004F015FA2F46F4E7AB067FF51BAF25F051
:100454002003238305F0070500E700BF9F48000041
:10046400014B0360002070470858000030BFFFF7BD
:10047400FDBF00BF2DE9F04105460B4EDFF82C808F
:10048400324606EB0807CC1B2046094904F0BFFF9F
:10049400A01942460021083C04F0C6FF2C6707F16E
:1004A4000800BDE8F08100BF000000000400000067
:1004B400F0570000074A936893F90E10002907DBF0
:1004C400526993421FBF044A536843F080535360F8
:1004D400704700BF1C04002000ED00E0154B9A6A31
:1004E40012F0007F9A6A14BF1E201D2012F0807F34
:1004F4009A6A18BF1F2012F4801F9A6A18BF02203C
:1005040012F4002F9A6A18BF212012F4802F9A6ADD
:1005140018BF222012F4003F9A6A18BF232012F455
:10052400803F9A6A18BF24206FEA02426FEA12429F
:100534009A62704700ED00E010B5194B0246986AC4
:100544009C6A10F4805F14BF1720162014F4006F07
:100554009C6A18BF1820A40509D5986B986A0004F2
:1005640004D51AB19A6A22F400429A6219200C4BFB
:100574009A6A12F4806F9A6A18BF1A20D2050CD4B2
:100584009B6A13F4005F18BF1C20054A936A43F466
:100594007F43936200230B7010BD1B20F5E700BF5F
:1005A40000ED00E010B51C4B0246986A9C6A10F0FE
:1005B400100F14BF1120102014F0080F9C6A18BFEC
:1005C4001220A40709D5586B986A000604D51AB1FD
:1005D4009A6A22F080029A6213200F4B9A6A12F0F0
:1005E400010F9A6A18BF142012F0200F9A6A18BFDC
:1005F4001520D40658BF9B6A074B9A6A920642BFDD
:100604005A6A22F400525A629A6A42F0FF029A62CB
:1006140000230B7010BD00BF00ED00E0F0B5474BA8
:1006240004465B6800258BB0C3F3080385F3118887
:10063400BFF36F8F02F07F40B0F17F4F11D102F012
:100644000C0008280DD010074CBF0C4601250022D1
:10065400033B8DF80720032B05D8DFE803F0246261
:10066400665F2C46F3E700239DF80720CAB902AE63
:1006740004F12007324620686168083403C2BC4292
:100684001646F7D1099A002D53D0C2F3080121B9B7
:100694006FEA52226FEA42220992184602A904F034
:1006A40092F90BB0F0BD254BDA6A9107DBD4DA6A14
:1006B400002AD8DBDA6A5200D5D55A69A16942F416
:1006C40080725A61BFF34F8FBFF36F8F5A6931F84D
:1006D400021C22F480725A61BFF34F8FBFF36F8FF5
:1006E4004DF60272914209D09A6AD2B242B1012007
:1006F4000DF10701FFF756FF0346B5E72368B3E79B
:100704009A6A12F47F4F05D001200DF10701FFF71B
:1007140013FFF1E79B6AB3F5803FA4D3FFF7DEFE36
:10072400EAE700200DF10701E4E700200DF10701DD
:10073400EDE722F4FF7222F00102ADE700ED00E0E4
:10074400044B5A6942F010025A615A6942F48062B9
:100754005A61704700ED00E0EFF30880EFF3098180
:1007640001B57246FFF75AFF01BD00BF01F044FD19
:10077400202080F3118808484FF40061401880F36A
:100784000988EFF314800221084380F31488BFF32F
:100794006F8F00F0B3F8000068040020084B9B68DA
:1007A40083420BD1EFF3058343B1064B5A6842F001
:1007B40080525A605A6A22F400425A6204F0ECBD34
:1007C4001C04002000ED00E06FF00A01084A936861
:1007D4009967084958674B6843F080534B6000237E
:1007E40083F31188BFF36F8F9368986F704700BFCE
:1007F4001C04002000ED00E0EFF31183202383F3B9
:100804001288BFF36F8F4FF00061084A53699360F9
:10081400074A5160196F074A116000215A6F5967DE
:1008240082F31188BFF36F8F704700BF1C04002050
:1008340000ED00E0B80200200E498A684FF0300055
:100844001044EFF3098C80E8F01F74467046FFF7FC
:10085400D3FFA64607498A6802F1300090E8F01FEA
:100864008CF3098802F1000004B504F0C1F8BDE876
:10087400044070471C0400201EF0040F0CBFEFF36B
:100884000880EFF30980816911F8021C0229FFD066
:1008940001B504F09EF801BD40B2002807DB012336
:1008A4004109034A00F01F00834042F82130704799
:1008B40000E100E0054B420953F82220012300F037
:1008C4001F0003FA00F01040704700BF00E100E091
:1008D40040B2002801F10101ACBF00F16040064BB9
:1008E4004FEA4111C9B2ABBF00F5614000F00F00FF
:1008F40080F800131954704714ED00E00F4A08B54E
:100904000F4B22F07F029A60BFF34F8FBFF36F8FBC
:10091400D3F8882022F47002C3F88820EFF31483FC
:1009240023F0040383F31488BFF36F8F02F08AFE6D
:1009340003F0A8FA00F04CF802F0C4FE0000000036
:1009440000ED00E042F8203C009B0B4942F81C3CBF
:10095400019B21F0010142F8183C029B42F8081C5B
:1009640042F8143C4FF0807342F8043C0023203AD0
:1009740002654367704700BF1502000000B50D4BC8
:1009840015469860026F0C4B0E461A60036E83F393
:100994000B882C4686F309884FF00000074B9847D4
:1009A40020464FF000014FF000024FF00003044CCA
:1009B400204700BF1C040020B8020020FD490000AD
:1009C400150200001022014B1A61704700ED00E08F
:1009D400002320210348C2180133452B82F8001359
:1009E400F9D1704700E100E008B5EFF30583064A4A
:1009F400103B02EBC30152F8330049688847BDE855
:100A04000840FFF757BD00BFC85500001FB5094C8B
:100A1400094A23460121094800F0FAF80023039308
:100A2400074B0121E41A01A80193029400F0FAF89B
:100A340004B010BD0000072000000020085800008A
:100A4400F800002010B50C7A0B6804F01F0223F0A4
:100A54001F031A43CB68640923F01F03054943EAC3
:100A6400440343F00103C1F89800C1F89C20C1F885
:100A7400A03010BD00ED00E010B5074BD3F8903066
:100A8400C3F30723013B984202D8FFF7DBFF10BDF5
:100A94006FF01500FBE700BF00ED00E02DE9F04F1B
:100AA4000F46144606464FF000084D4D85B0B84534
:100AB40080F29280D6F80490B9F1000F36D0B9F1E3
:100AC4001F0F40F2878019F01F0F40F08380D6F883
:100AD40000A01AF01F0F7DD1504603F0C9FF8346D2
:100AE40009EB0A00013803F0C3FF834572D11BF1FF
:100AF400160F6FD05C456DDDC5F898B0D5F89C1025
:100B0400C5F898B0D5F8A03021F01F0143F01F0AB2
:100B1400D6E900321A44994202F1FF391ED1CA457E
:100B240008D131465FFA8BF003F0ABFF08F10108FE
:100B34000C36BCE73146C5F898B0D5F89C3022F0A5
:100B44001F0203F01F031343C5F89C30E0B203F007
:100B540098FF10F1160F3DD0441CE7E7C5F898B094
:100B6400D5F8A020013B23F01F0302F01F0213431A
:100B7400CA453146E0B2C5F8A030E8D003F081FFA1
:100B840010F1160F26D0C5F898B0D5F89C209DF822
:100B940008300AF1FF3A62F304038DF80830D5F8FF
:100BA400A0309DF808205B0863F347128DF80820F5
:100BB400D6E900321344009323F01F035344A3EBFC
:100BC4000903013023F01F036946C0B20393FFF702
:100BD40053FFBEE76FF01504204605B0BDE8F08F63
:100BE40000ED00E00522044BC3F89420BFF34F8FBF
:100BF400BFF36F8F704700BF00ED00E0BFF35F8F5E
:100C04000022024BC3F89420704700BF00ED00E0BF
:100C140010B5034C2278FFF741FF207010BD00BFD0
:100C24004C0400202DE9F74F294D8A4606464FF023
:100C34000008AB46274FD0451BDAD6F80490B9F12B
:100C4400000F3FD031680846019103F011FF01996C
:100C5400044609EB0100013803F00AFF84424FF017
:100C640014021D4B08D002FB08F36FF015024BF879
:100C7400032003B0BDE8F08F14F1160F2C60F8D0F8
:100C84001978A142F5DD02FB08B0C7F89840C7F80F
:100C94009840D7F89C4000F10801007B64F30400FD
:100CA4000871D7F8A0000C79400860F347140C7160
:100CB400D7F89C1021F01F016960D7F8A01021F02B
:100CC4001F01296108F1010814350C36B3E700BF90
:100CD400BC02002000ED00E04C040020F0B54149C6
:100CE400414CD1F890302568C3F307239D4287B067
:100CF40075D80020FFF782FF3C4BC1F8C030854215
:100D040016D13B4C01A82570FFF7AAFB0025064627
:100D1400384FAE4213D1002023783249D1F89020C5
:100D2400C2F30722934254DBFFF75CFF00202FE05D
:100D3400616801EB0011FFF785FE0130DFE70199DF
:100D4400280101EB0513DA683A40B2F5001F21D0FF
:100D5400B2F5800F2BD0B2F5801F38D15A689B684A
:100D64000958013B22F01F0003440120844623F06C
:100D74001F0340EA4C10CDE902218DF8100002A9AE
:100D840020780593FFF778FE00281DDA6FF0150030
:100D940007B0F0BD5A689B680958013B22F01F0058
:100DA40003444FF0020C012023F01F03E1E75A68CB
:100DB4009B680958013B22F01F0003444FF0000CCC
:100DC400062023F01F03D4E7237801332370013571
:100DD4009FE7C1F89830C1F8A00001339EE74FF0B7
:100DE400FF30D5E700ED00E014580000AAFF4400EE
:100DF4004C0400200000F0FF08B5024B1B68984724
:100E0400002008BDD0020020034B044A18609378E8
:100E140043F0020393707047D002002004000020C6
:100E240008B50649064821F00701C1F1005202F550
:100E3400E02203F089FC002008BD00BFAF110020B0
:100E4400D402002007B50DF1070003F0E0FF114BB9
:100E540098421CD14FF480620F4B1049C3F8B82557
:100E64004FF40062C3F83C259DF8070003F0C3FF6C
:100E74000B499DF8070003F0B9FF01209DF80730E6
:100E8400984001F0D7FA002003B05DF804FB6FF03E
:100E94000B00F9E70000AD0B00A002502CA002509B
:100EA40028A10250054B03EB8000D0F8003223F058
:100EB400E04343F04053C0F80032704700258450AB
:100EC400012208B50A4B0B49C3F800250223002070
:100ED400C1F8D036FFF7E6FF1046FFF7E3FFC1F88D
:100EE4000427C1F80429C1F8002B002008BD00BF65
:100EF4000010005000400050052370B5144D154EED
:100F04002C780134B4FBF3F303EB8303E41A03F00A
:100F140066FF114A137823B156F82430C01A072803
:100F240014D94FF05023D3F8141141B10021C3F860
:100F34001411D3F814312C700CB9012313702C78CC
:100F440003F04DFF46F82400012070BD0020FCE7AB
:100F54004E040020E00200204D04002048B1054B5F
:100F6400054A1B68B3FBF2F35843044B43F00103F7
:100F7400184770475800002040420F00F057000007
:100F84000149024803F096BC3C580000F4020020DA
:100F94004FF47F032DE9F041D3F830210646072AA8
:100FA4000D46D3F8343120D1023B032B02D8124A28
:100FB400D35CD3B14FF050244FF001080027052033
:100FC400C4F81886C4F8147603F00EFF4046C4F83B
:100FD400148603F009FFC4F81476C4F81876304672
:100FE4002B46BDE8F041002118474FF05023002262
:100FF400C3F81426F3E700BFA7590000084B70B5E7
:10100400C31A0D4607499B1004465943402206481B
:1010140003F066FD2B4601462046BDE870401847A4
:1010240024030020B76DDBB664550000402373B57C
:101034000B4C0093041B0B460D460A49A410614354
:101044000646094A094803F077FD011E05DA3046D1
:101054002B4602B0BDE87040184702B070BD00BF17
:1010640024030020B76DDBB6A74B000064550000D5
:1010740010B5EFF31184202383F31288BFF36F8F2D
:10108400074A136823F00201DB07116002D4012030
:1010940003F070FF84F31188BFF36F8F10BD00BF9E
:1010A400C40300202DE9F84300220121064605204F
:1010B400FFF70EFC114801F0C3F9114B984219D106
:1010C40001F0CEF900244FF01C090C27DFF834801E
:1010D4003569414609FB045003F0ECFB002807DBAB
:1010E400012307FB04551C44042CAB67F0D10020FA
:1010F400BDE8F8836FF00400FAE700BF05120000B2
:101104000000AD0B485800001FB500220123CDE9B3
:1011140002236B46084ACDF800D0CDF804D003F082
:1011240039FD002805DB4FF480420023684602F0B5
:101134005BFB05B05DF804FBDD4B00000C22104B9B
:10114400014602FB0033002030B4D3E91C52186777
:10115400EFF31180202484F31288BFF36F8F9C6F08
:1011640004F0C00444F002049C6780F31188BFF3C8
:101174006F8F1DB12B4630BC0248184730BC7047F6
:10118400240300206455000010B4EFF311822023DF
:1011940083F31288BFF36F8F1748016841F002048C
:1011A4000460C80707D482F31188BFF36F8F01204E
:1011B40010BC01F06DB94FF05021D1F80C04D1F8F6
:1011C4000C14C907EFD5EFF3118083F31288BFF332
:1011D4006F8F0A498B6F03F0C00343F002038B67E0
:1011E40080F31188BFF36F8F82F31188BFF36F8F81
:1011F400002010BCFFF7A2BFC4030020240300207A
:10120400062812D8DFE800F0040F1111110D0B00AD
:10121400064B986F10F0070007D1FFF78FBF02202D
:10122400FBE70320F9E70120F7E7704724030020D8
:101234002DE9F041012207463649D1E8EF3FC1E8E4
:10124400E02F0028F9D133B9334934484B60CB60DF
:101254008A6003F042FB7B1E012B2BD8012F07D1A0
:101264004FF05023D3F81C3403F00303022B21D096
:1012740003F0E7FF0546F8B9294B1B78E3B14FF0BB
:10128400502302220646C3F808234FF05024DFF807
:101294009480D4F81824D4F81834D20315D503F064
:1012A4000303022B01D0012F0FD16DB386F31188F4
:1012B400BFF36F8FBDE8F081EFF31186202383F332
:1012C4001288BFF36F8F0125DFE7C5B1304603F005
:1012D400B3FBD4F81835DBB2012BDAD1D4F80421EE
:1012E400002AD6D00022C4F80421D4F80421022212
:1012F400C4F818252022C8F88021A360C9E700217A
:10130400212002F015FDE4E74FF050230222C3F838
:101314000423CFE720030020100300204003002013
:101324006104002000E100E008B5074803F04BFF2A
:1013340038B10648FFF768FD0448FEF74BFF00206C
:1013440008BD6FF01200FBE7A05500005513000024
:101354000A2838B50446074D04D1AB680D21284648
:101364005B689847AB6803485B68E1B298472046DE
:1013740038BD00BFA0550000F0B5406801F01F045F
:10138400057B87B044EA45140569002D63D0B2F5A6
:10139400001F00F1100506D12146284603F06AFE1D
:1013A400002007B0F0BD0027B2F5800F01AE019711
:1013B400776039D1B3F1007F14BF052304238DF87E
:1013C40004300023CDE904630393836823FA01F115
:1013D40011F001011AD1B2F1A07F17D104F01F035B
:1013E400620903F180032AD0012A3AD11E4A52F835
:1013F4002330DB070AD40DF1030632462146284682
:1014040001F06AFB194B98421BD0029621462846EC
:1014140003AA01F01DFA164B98421FD1012221465E
:10142400284601F0BBFBBBE7B3F1C06F05D0B3F1B5
:10143400007F14BF01230223C1E70323BFE70D4A42
:10144400D5E73146284601F0A3FB094B9842DCD08E
:101454006FF00B00A5E76FF08500A2E76FF01500B1
:101464009FE751F82330FFDE002884500400AD0BC1
:101474000000AD0B0025845038B545682B69B3B125
:101484001035284601F074FB044680B9014628460D
:1014940001F03CFB084B98420BD1224628460749F1
:1014A40001F014FB224605210D20FFF711FA00205C
:1014B40038BD6FF00400FBE70000AD0BC51400005D
:1014C4004209034670B502D0012A17D070BD0D4EF3
:1014D400326951680029F9D0012503F01F030C6813
:1014E4009D400029F2D08A682A4002D030464B68D9
:1014F40098472CB1236821461C46F2E7024EE7E7E1
:101504002346F8E78C550000785500002DE9F04398
:1015140040F206354668D00648BF0320337B02EA12
:10152400050558BFC2F3401087B001F01F07B5F599
:10153400837F144647EA43178DF8030043D00FD83E
:10154400062D18D007D8B5B1022D3ED06FF0150086
:1015540007B0BDE8F083B5F5807FF7D101250AE037
:1015640040F20222954232D0B5F5407F31D0B5F534
:10157400007FEBD1022522032DD5012372688B4015
:101584009360326982BB07F01F037F092AD0012FC1
:1015940077D13E4A02EB830284F48033D2F80012FE
:1015A400C3F30043C4F3404444EA430421F47061A8
:1015B40044EA800421F00F0144EA05230B43C2F8F6
:1015C40000320020C4E70725D5E70425D3E7052525
:1015D400D1E70325CFE7630341BF012372688B4042
:1015E400D360CEE72A4AD5E71036394630460DF1A6
:1015F400020201F071FA14F4403F80460CD13946DE
:10160400304603F035FD234B9845DAD130469DF83A
:10161400021001F0B7FAD4E74FF0000901AB3946E4
:10162400304603AACDE90439CDE90199CDF80C90EF
:1016340001F00EF9174B984288D114F4003315D0F9
:101644009DF8033084F48034C4F300448DF80E30E4
:1016540039464B46304603AA8DF80C508DF80D40A0
:1016640001F0B2F90B4B9842CDD06FE7CDE90433CA
:1016740039460DF10303304603AA039301F0E8F859
:10168400F0E7803352F82330FFDE00BF0028845097
:10169400002584500000AD0B38B544680569E36942
:1016A4009847206A03F00AFB00280DDB2B462046EE
:1016B400074A04F1080101F0E5FB064B984204D106
:1016C400204601F019FC002038BD6FF00400FBE750
:1016D400191700000000AD0B70B54468236820465C
:1016E400D3F80855D3F80C6501F016FC31462846AA
:1016F40001F0AEFE0546206A03F0E0FA204601F050
:10170400FBFB034B9D4214BF6FF00F00002070BD24
:101714000000AD0B0378012B08D0022B08D04BB985
:10172400054B0B6201F1100002F03AB8034BF8E7E5
:10173400034BF6E7034BF4E70000AD0B0100AE0BDF
:101744000200AE0B0100AD0B2DE9F04F93461422BD
:101754001D46D0F804A08BB00669BAF8183080464C
:101764000C460DEB02000021D6F82490029303F0FE
:101774005BFE8DF815504FF0FF324FF0FF333046CB
:1017840002F032F806F1100301930027002200232F
:1017940006F1100002F028F83D465F4501D300240D
:1017A40060E0207A020700F1818001375F452168FB
:1017B4000AD2830708D4237D80EA030202F00102DF
:1017C40003F004031A4307D025B901F06043B3F1D1
:1017D400005F17D0002300E001236268DDF808E011
:1017E40005EB020CF44564D8C00705D409EB0500E9
:1017F400039303F00CFE039B62682A4495B2002B0A
:101804003FD1FDB90025236808936368227A0693C3
:1018140002F001018DF81410BAF8241099424BD348
:1018240082F00202C2F340025046520105A901F0BF
:1018340091FB234B984209D00B33984210D16FF09F
:101844000F040FE02B46CDF82090DFE74FF48042E1
:101854000023019801F0C8FF58B14046FFF73CFF50
:101864006FF00404304601F09BFF20460BB0BDE846
:10187400F08F336A124A9342F2D1237ADB0702D4FF
:1018840000250C3489E7089B9945F9D1234608E0E3
:10189400A91AD8688DB219FA81F1039303F0B7FD40
:1018A400039B5A680C3B9542F2D2E9E76FF085043A
:1018B400D8E76FF01B04D5E76FF01B04D5E700BF32
:1018C4000000AD0B036803F01F025B09026004D043
:1018D400012B034818BF002070470248704700BF1F
:1018E40000288450002584502DE9F04F1546834686
:1018F40040F2FF18DFF88891DFF888A185B000EB8B
:101904008101594503D1002005B0BDE8F08FDBF813
:101914000030C3F3C322082AC3F3080400F2AA80E8
:101924005B0C444508BF4FF0FF3419F80270222BBA
:1019340000F2A380DFE803F012191F22252B22A155
:10194400A1A1A13A67A1A1A1A1A1A1A1A1A16A7F7D
:101954008285A1A1A1888F9295989B00C5F80C451A
:10196400601C5DD10BF1040BCBE7C5F81445621C78
:10197400F8D000265DE0C5F80845F1E7C5F8104544
:10198400F5E7631CC5F80845ECD0002604E0661CA6
:10199400C5F80C45E6D0012603A80394FFF792FF8F
:1019A4000122039B02FA03F3C36008E0C5F808456B
:1019B400002FDCD1631CD5D0002606273246DBF885
:1019C4000030039403F40040002818BF002203A849
:1019D40018BF012601930092FFF774FF039C019B3B
:1019E40000EB8400D0F80042C3F3412C009A3B0280
:1019F40043EA8C03134304EA0A04234343EA4603F9
:101A0400C0F80032AEE7C5F80C45D1E7C5F860452B
:101A1400601CDBF80030A5D0C3F30043002BBAD020
:101A2400012603A80394FFF74DFF039B06FA03F373
:101A340083603246C3E7C5F86445E9E7C5F86845FD
:101A4400E6E7C5F86C45E3E7C5F82445621C89D090
:101A540001260022B3E7C5F8284581E7C5F83045DB
:101A6400F4E7C5F83445F1E7C5F83845EEE7C5F8BD
:101A74003C4575E76FF0150046E76FF0850043E7D6
:101A8400D7590000F0F0FCFF2DE9F74306464FF06C
:101A94000008002201210820FEF71AFF0820FEF7A3
:101AA400FBFE776835693C684146C4F800852E60C2
:101AB400D7F80C9001AA484603F010F900283FDB40
:101AC400019BD9F8002019791868FFF70DFF002849
:101AD40036DB6B7AD6F810C0012B03D0032B2DD143
:101AE4004FF01008AB7A032B28D195F80BE0BEF128
:101AF400000F02D0BEF1010F20D12A7A012A22D090
:101B0400022A24D0D2B910466B687168B3F5164F17
:101B1400096800F0BA803AD8B3F5165F00F0B880CF
:101B240020D8B3F5966F00F0B58012D8B3F5967F40
:101B340000F0B380B3F5167F00F0B2806FF085003B
:101B440003B0BDE8F0834FF480700E22DCE7002080
:101B5400FBE7B3F5166F00F0A680B3F5965FEDD101
:101B64005D4B43E0B3F5E14F00F0A08008D8B3F536
:101B7400615F00F09D80B3F5964FDFD1574B35E0A0
:101B840047F612294B45D9D14FF400032EE0B3F5A3
:101B9400613F00F08F8015D8B3F5963F00F08D803B
:101BA4000AD84DF6C0294B4500F08980B3F5614F42
:101BB400C4D14FF46B0319E0B3F5E13FBED14FF04C
:101BC400EB7313E0B3F5612F7CD009D8DFF81091E3
:101BD4004B457AD0B3F5E12FB0D14FF0E86305E07F
:101BE400DFF800914B45A9D14FF08053C1F824355B
:101BF400736840EA0E001B6842EA08021043C3F807
:101C04006C050CF10403D5E9010183E803007B684A
:101C1400990712D505F1180000F0FAFC324B9842EE
:101C240056D1287E04F10C0204F5907103F0E8F813
:101C340001202B7E984000F0FDFB0823C4F80035FA
:101C44003B7A53B9C4F81031D4F810316B69C4F835
:101C540034350123C4F8383523607B6800209A07A3
:101C64005CBF4FF48073C4F804337B68DB0644BF65
:101C74004FF48003C4F804332B69C4F844350123BA
:101C8400C4F84805A360E3605AE74FF41D03ADE7C9
:101C9400164BABE74FF49E23A8E74FF4A033A5E718
:101CA4004FF41C33A2E74FF41D239FE7104B9DE72D
:101CB400104B9BE74FF06C7398E70F4B96E74FF48C
:101CC400650393E74FF0706390E74FF080638DE70F
:101CD4006FF0040034E700BF00B0130000A04E0012
:101CE40090D0030040420F000000AD0B00502700CD
:101CF40000C0750000F03A0000903A012DE9F0416F
:101D040004460D46076903F09CFA4FF02008B0B969
:101D14002C4B1B789BB16426606803F00DF8F0B976
:101D2400012003F061F8013EF6D10021212001F0E9
:101D3400FFFFF0E786F31188BFF36F8FF5E7EFF34A
:101D44001186314688F31288BFF36F8F606802F002
:101D5400F3FF80B986F31188BFF36F8FEFE7EFF3DA
:101D64001186314688F31288BFF36F8F606802F0E2
:101D7400E3FF0028DED03B691D7062683869136890
:101D8400C3F844050120C3F848050020C3F8200126
:101D9400D3F82051C3F858015268D3F85801D20639
:101DA40008D5082062681268C2F800054FF4800262
:101DB400C3F8042301229A6081F31188BFF36F8F63
:101DC400BDE8F081610400200123834070B5DC4349
:101DD4000B4AD2E8EF1F01EA0405C2E8E65F002ED1
:101DE400F7D14FF4803282400648C0F80823BFF38D
:101DF4005F8FBFF36F8F0B4214BF0120002070BDB3
:101E0400E40300200050015070B40E4922F07F46D4
:101E1400D1E90034D01AC31844F10004C1E90034F4
:101E2400A6F50013B3F5400F09D2074B1B681A0A35
:101E34001B069C19054B42F10005C3E9004570BC23
:101E440002F0FAB808010020E80300201001002085
:101E5400D9B101230D4A8340D2E8EFCF4CEA030CF9
:101E6400C2E8E1CF0029F7D14FF48033084A834018
:101E7400C2F80433074BD3E8AF3FC340DB0742BF8C
:101E84004FF40012044BC3F800217047E403002010
:101E940000500150E003002000E100E00D4B186801
:101EA400010A0006BFF35F8F0B4BD3F804351818F3
:101EB40041F10001B3F5801F0AD2084BD3E9002396
:101EC400904271EB030303D210F1807041F10001E1
:101ED400704700BFE80300200050015010010020AB
:101EE4002DE9F04F85B016461F4604469DF840A0E4
:101EF400FFF76AFF0190FFF7D1FFB04271EB0703D0
:101F040052D23B4B301A67EB0101984271F1000148
:101F14004DD2384B03EB0413D3E902239F4208BF8D
:101F2400964258D04FF48038334908FA04F82046D2
:101F340026F07F4BC1F8488302F045FF4FF00309B8
:101F4400584604F15005AD00ADB205F1502504F535
:101F5400A87305F580350293029A20F07F4341F877
:101F64002230C1F84483D1F80435244AC01A033816
:101F740020F07F4090422ED9286868B1D1F804350A
:101F8400A3EB0B0020F07F40B0F5000F039322D9A0
:101F9400204602F018FF039BBAF1000F07D109EBAA
:101FA400030009F10109D7E7BAF1000F09D06FF076
:101FB400150520460199FFF74BFF284605B0BDE8FB
:101FC400F08F01230E4AA340D2E8EF0F1843C2E872
:101FD400E10F0029F8D107490E982301C8500F9B3F
:101FE40001EB04120025C2E902675360E1E700BF78
:101FF40001008000F800002000500150FDFF7F0028
:10200400E00300207FB500254FF0FF304FF0FF3193
:10201400194C1A4B0226C4F80833C4F84833184B39
:10202400C4F80855C3E902014FF480334FF4001299
:10203400C4F80433134B0121C4F804631520C3F816
:1020440080212A46FEF744FC1520FEF725FC0123D7
:102054000D4AA360236013600C4B0D4A009328467D
:102064000023CDE90155FFF73BFF3046FFF7E0F8C9
:10207400284604B070BD00BF0050015003000F009B
:10208400F800002000E100E0E40300200D1E000041
:10209400FFFF7F002DE9F7432E4BD3F8042390076D
:1020A4000BD5D3F8042142B10022C3F804212A4AF3
:1020B400D3F80431136801331360264AD2F8043389
:1020C400D90326D5254BD3E8EF1F21F00100C3E83F
:1020D400E40F002CF7D1CB0702D4D2F84031C3B1BE
:1020E40000251C4CC4F84051D4F84031FFF7D6FE0B
:1020F400EFF31182202383F31288BFF36F8F184B01
:10210400D3E90267B042B94106D282F31188BFF322
:102114006F8F03B0BDE8F0834FF0FF38D3E90010B0
:102124004FF0FF391D60C3E902894FF48033C4F8CE
:102134004833C4F84051D4F8403182F31188BFF3D6
:102144006F8F0029E5D0009032463B4628468847E9
:10215400DFE700BF00500150E8030020E003002047
:10216400F800002030B5431C124C85B005D08442E1
:10217400A8BF0446012CB8BF0124FFF78FFE0E4B05
:102184000C4DD3E90013401AB0F5000F0FD22218FA
:10219400AA4228BF2A46002052180849CDE9010066
:1021A400009143F10003FFF79BFE05B030BD2A46C2
:1021B400F1E700BFFFFF7F00080100200D1E0000B3
:1021C40008B5FFF76BFE024B1B68C01A08BD00BFC1
:1021D400080100204FF47F03D3F83021D3F83431C1
:1021E400072A05D1023B032B02D8024AD05C704770
:1021F40000207047F259000008B5FFF7EBFF58B113
:10220400644BD3F8202A3AB90D21C3F8201A0121CE
:10221400C3F81C19C3F81C290022D30003F57F035B
:10222400D3F80013013107D0D3F800130132D3F8E7
:102234000433202A0B60F0D1FFF7CCFF002840F0D4
:10224400A080FFF7C7FF40B1534B544AC3F8302571
:102254004FF050230122C3F858254FF47F03D3F8DD
:102264003021D3F83431072A09D1023B032B06D895
:102274004B4AD35C1BB100224A4BC3F84C25FFF7F1
:10228400A9FF50B14FF05023D3F80024D10742BF27
:102294000022C3F81421C3F818214FF47F03D3F8A4
:1022A4003021D3F83431072A09D14FF05023D3F821
:1022B4000024D20744BF6FF00102C3F80024FFF7E3
:1022C40089FF18B16522334BC3F80C274FF47F0301
:1022D400D3F83021D3F83431072A16D1314BD3F84F
:1022E4002034002B11DA4FF050230322C3F81825B1
:1022F40001229A60D3F80421002AFBD00022C3F8FB
:1023040004210122DA60C3F818254FF47F03D3F8BF
:102314003021D3F83431072A23D1023B032B02D8CE
:10232400214AD35CEBB17E221A4B1B49C3F80C271C
:10233400C3F83C297F231D4AC2F818310023C1F891
:10234400043EC1F8083E01F54821C1F81031C2F835
:102354002431C2F82C3102F5FF1202F58052C2F882
:10236400A032134AD2F88C3043F44063C2F88C3064
:10237400104A114B1168C3F84415D269C3F84C25AF
:1023840008BD2922034BC3F80C270322C3F83C27BA
:1023940057E700BF00400050009003504400EFBED8
:1023A400EE59000000200350EA59000000200050BC
:1023B40000ED00E00080FF000060005030B50468CC
:1023C400ACB1B4FA84F30122C3F11F03DBB29A4027
:1023D40024EA0202D0E8EF5FA54204D1C0E8EC2F62
:1023E400BCF1000FF6D1EAD102480B7030BD0248AF
:1023F400FCE700BF0000AD0B0200AD0B10B5036895
:10240400CB40DB0710D401238B40026843EA02016E
:10241400D0E8EF4F944204D1C0E8EC1FBCF1000FA8
:10242400F6D1F2D1014810BD0148FCE70000AD0B24
:102434000400AD0B014BC3F8040570470070015054
:10244400044B1A7922B9012218601A7102487047A4
:1024540002487047EC0300200000AD0B0C00AD0BEC
:1024640008B50A4B1B6833B10520FEF723FA10B9EF
:102474000520FEF711FA4FF050230122C3F8182566
:10248400C3F81425C3F8802508BD00BFEC03002061
:1024940010B5032845D8DFE800F01802554F002294
:1024A4004FF480730121002003F1502318601C684D
:1024B400012402F150221460284A1268002A47D0ED
:1024C4004FF05023C3F804132BE04FF05023D3F8FC
:1024D4001814D3F81824C90312D502F00303022BED
:1024E40005D0012B02D0002002F093FC01234FF011
:1024F40050220221C2F8183508224FF48273D2E721
:10250400D3F81424D207F1D5D3F81C2402F0030223
:10251400013A012AE7D8114A12681AB10222C3F813
:10252400042310BDD3F80421002AFBD00022C3F8F1
:102534000421D3F80431F4E718224FF490734FF4D4
:102544008071B0E720224FF492734FF40071AAE730
:102554001A68002AFCD018601B68E2E7EC0300202C
:102564004FF0502310B5D3F8002152B10020C3F826
:102574000001D3F800210122C3F80823234B1B6870
:1025840098474FF05023D3F8042182B10022C3F8B6
:102594000421D3F80421D3F81824D3F818240221F1
:1025A40002F00302012A28D1C3F818159A604FF0EB
:1025B4005023D3F8202162B10022C3F82021D3F89C
:1025C40020214FF48072C3F80823104B05201B68A8
:1025D40098474FF05023D3F82421AAB10022C3F81E
:1025E4002421D3F824214FF40072C3F80823074BA5
:1025F4000620BDE810401B681847C3F80813034BB6
:1026040001201B689847D2E710BD00BFEC030020EF
:1026140001460148FFF7D2BE5C000020036803F0C6
:102624001F025B09026004D0012B034818BF00207D
:1026340070470248704700BF00288450002584502A
:10264400034A4309D35C00F01F001844C0B270472A
:10265400F659000070B50546FFF7F2FF0C4C083040
:1026640034F810300E46DA0508D5C3F3432304EBDF
:10267400C302284654F8333052689847A3682BB1F4
:1026840031462846E268BDE87040184770BD00BF77
:102694006000002008B5FFF7D3FF034B083033F880
:1026A4001000400B08BD00BF6000002008B5FFF714
:1026B400C7FF034B083033F81000C0F3400008BDD7
:1026C4006000002008B5FFF7BBFF034B083033F868
:1026D4001000C0F3401008BD60000020034611F054
:1026E400010010B5CCB20BD1A207C4F340000DD544
:1026F400074A106A58601062003818BF012005E0CC
:1027040004490A6A1A600A62002AEDD010BD00BFAB
:10271400002884500025845010B5FFF791FF124A19
:10272400083032F81030D9051CD5C3F3432123F403
:10273400F85322F81030002002F10E0434F8023F5E
:1027440013F4807F03D0C3F3432399420AD00130AA
:102754003028F3D1002342F831300448BDE810405A
:10276400FFF74CBE10BD00BF60000020D800002061
:10277400F0B5054600200126044607468C420BD1DD
:10278400114BD3F87C2132B10022C3F87C21D3F859
:102794007C3140F00040F0BDE3B29B0003F5807251
:1027A4009B0806FA03F31D420BD002F1A04202F586
:1027B4005042D2F800C0BCF1000F02D0176012687A
:1027C40018430134DAE700BF00D00050F7B50646DD
:1027D4000846FFF735FF1A4F00F1080537F81530A2
:1027E4000C46DB072AD5304602F01EFC2046FFF7D4
:1027F40069FF58B12046FFF74DFF0022316800B24F
:1028040001EB8003C3F81025C3F810252046FFF719
:1028140083FF002301A827F815300194FFF7FEFE7B
:10282400019B00EB8300D0F80022064B134043F0D9
:102834000203C0F80032044803B0F0BD0348FBE7CC
:1028440060000020F0F0FCFF0000AD0B0400AD0BB5
:102854002DE9F0431646804685B00846FFF7F0FEA2
:102864000D463168044609B32846FFF71FFF18B127
:102874002846FFF727FF10BB00230DF10F02CDE917
:1028840000338DF80E308DF80F3028460B460DF1CD
:102894000E0102F071FB484A04F1080132F81130CC
:1028A40023F0020343F0010322F8113073687BB371
:1028B40028461F785968FFF7F9FE10B1E9B13F487F
:1028C40029E03D4A04F1080032F8103023F02003D7
:1028D400DB04DB0C22F8103079B1032FEFD87168D8
:1028E400D1F804E0D8F800109EF800C001EB8C0188
:1028F400A7B9C1F81075C1F810752F4A04F1080181
:1029040032F8113023F01C0343EA870322F8113014
:10291400B3683BBB2A4805B0BDE8F083D1F810E5A5
:1029240043EA4C332EF0030EC1F810E5D8F800103A
:1029340043F0200301EB8C0EDEF8101522F8103062
:1029440021F44F3121F44071CEF810152902DEF83C
:10295400108501F47C5141EA074141EA0801CEF8AF
:102964001015CAE72846D3E90067FFF7D5FE002E05
:10297400D0D0114DD5E90023964203D19F4201D115
:10298400002209E00F480DF10F01FFF717FD0C4B72
:102994009842C0D19DF80F2005EBC20308345F6054
:1029A40035F8143045F8326043EA422343F4807327
:1029B40025F81430AEE700BF600000200400AD0B22
:1029C4000000AD0BD80000202DE9F0430C468046F2
:1029D40085B0204611461D46FFF732FE064629B350
:1029E4002046FFF763FE18B92046FFF76BFE18BBBD
:1029F400334F06F1080937F8193013F01C0F02D0D1
:102A04004B78012B18D001238DF80F3000234A1C7A
:102A1400CDE9001320468B1C0DF10F0102F0ACFA36
:102A240037F8193043F0030327F81930002D44D048
:102A34002046FFF73BFE18B9224805B0BDE8F083F5
:102A4400002295F800C0D8F800301D4F03EB8C032A
:102A5400C3F81025C3F8102506F1080237F8121040
:102A64004FEA8C0E21F02001C904C90C27F812107A
:102A74006E7816B3D8F80000AD787044D0F81035ED
:102A8400360423F4991323F4F853C0F810352302C1
:102A940003F47C5306F440362D05D0F810E5334397
:102AA40005F480152B4341EA4C3143EA0E0341F00F
:102AB4002001C0F8103527F812100348BDE700BF05
:102AC400600000200400AD0B0000AD0B014BC3E916
:102AD400021270476000002010B508461446FFF744
:102AE400F1FD50B10846FFF7ABFD054B083033F854
:102AF400103004485B0B237010BD0348FCE700BF93
:102B0400600000200000AD0B0400AD0B70B5154D46
:102B1400064695F880401CBB2146602205F1100052
:102B240002F082FC214630682E6F8E420ED10023C3
:102B3400C0F87C31D0F87C3140F30730FDF7ACFEAF
:102B44000123094885F88030AB6770BDCBB29B0088
:102B540003F580727C2B04BF845083580131E4E771
:102B64000248F2E7600000200000AD0B0C00AD0B42
:102B7400034B93F88000003818BF0120704700BF52
:102B8400600000200148FFF739BC00BFD4000020DA
:102B94000148FFF713BC00BFD400002073B50368DD
:102BA4001646D3F804230546002AA8BF4FF0004276
:102BB4000846A8BFC3F804230C46FFF783FD00B3FF
:102BC4000846FFF773FD0146D8B92046FFF762FDBA
:102BD40004B2A4000346286804F580728150296871
:102BE40082582144D1F8102542F00102C1F8102581
:102BF4002EB10122296802FA03F3C1F8043302B0AA
:102C040070BD2046FFF71CFD0E4B083033F8103022
:102C1400C3F38203042B11D0052B11D001A8019416
:102C2400FFF7FCFC019A0369D34003F00103991CEC
:102C3400204602B0BDE8704002F0E7B90321F7E78F
:102C44000221F5E7600000202DE9F04F684BDFF822
:102C5400A481D3F80403D8F87010C0B289B040F04E
:102C64000040FFF785FD051E2FDAC24600235AF8FF
:102C74007C1F06A8CDE90633FFF730FD4FF0000BAB
:102C84005D4B0DF118090193019A12F8013B019271
:102C9400DA081AF8022003F0070322FA03F3DA072A
:102CA4001CD409F10409BBF1000F14D0D8F870103A
:102CB4004FF00040FFF75CFDD8F87C1006A8FFF742
:102CC4000DFD0028DAD125F000450124002D76D130
:102CD40009B0BDE8F08F4FF0010BD5E7474B5B44DB
:102CE4000293D9F800100029DBD091FAA1F1B1FACE
:102CF40081F1029B1C7841EA44142046FFF7A0FCB2
:102D0400083038F81070C808BB080393012319F879
:102D1400002001F0070103FA01F122EA010209F897
:102D2400002005A80594FFF779FC059A039B8032DF
:102D340050F82220C7F382065B073746C2F30142EC
:102D440022D520463946D6B2FFF784FC05A805945F
:102D5400FFF764FC059B803350F82330C3F3014331
:102D64009E4207D10021204602F04FF93146204609
:102D740002F04BF905A80594FFF750FC0122059BCE
:102D840002FA03F30362ACE7022A0CD103212046C2
:102D940002F03BF906F00503012BEBD1394620463E
:102DA400FFF758FCE6E702212046039202F02DF9D2
:102DB400032EF3D0039A032ADCD1022EEDE795FA11
:102DC400A5F3B3FA83F304FA03F29B0003F1A043DF
:102DD40003F55043D3F81005D3F81015C0F30520BC
:102DE400C1F3014125EA0205FFF734FC6EE700BF99
:102DF40000D0005060000020065A0000065A00006F
:102E040030B500F01F04400911D0012811D10B483E
:102E140000EB8400D0F80052094C1B0243EA820202
:102E24002C4042EA41012143C0F8001230BD05485C
:102E3400EEE70023803453F82430FFDE002884506A
:102E4400F0F0FCFF0025845010B4CC7B8A68036842
:102E54002CB9D1E90041C3F80845C3F80C15C3F8EF
:102E64002425282203795343054AD3582BB10068FB
:102E740010BC40F30730FDF70FBD10BC704700BF16
:102E8400F40300202DE9F041074690F8048028203F
:102E940000FB08F0144E0C46351895F82210F1B9D1
:102EA400A96032506B6085F8251085F824106CB148
:102EB400A37B204685F8273002F00FF988B1637BA5
:102EC4002146384685F82630FFF7BEFF282303FB4A
:102ED40008660123054886F82230BDE8F0810448DD
:102EE400FBE70448F9E700BFF40300200000AD0B42
:102EF4000C00AD0B0400AD0B062103680279C3F886
:102F040000152821034B01FB0233022283F82220FF
:102F1400704700BFF4030020282102790B4B01FB0A
:102F240002330021996002680948C2F80803D2F804
:102F3400000220F4BC50C2F80002C2F800150122BD
:102F440083F8241083F82220704700BFF403002084
:102F540002029C012DE9F84F28239046002290F8A4
:102F64000490AE4D046803FB095383F823204B6897
:102F74000E4633B1CB6803F06043B3F1005F40F019
:102F840085813378023B012B06D8336903F0604313
:102F9400B3F1005F40F07A81A14BC4F808332823D1
:102FA40003FB095393F8241001F0FF0239B19B6825
:102FB400DFF870B2C4F804335846BDE8F88F18F04F
:102FC400140F0CBF0121002183F82410317809EB80
:102FD400890783F82010717805EBC70783F821105F
:102FE400F168D9607168196131695961B168C3F8D0
:102FF4001C809961C8F3001183F825107378C4F814
:103004008835C4F86021D4F86031C4F84821D4F874
:103014004831C4F82421D4F82431C4F80421D4F864
:10302400043118F0010318BF0123C4F8503518F017
:10303400020318BF0123C4F840353378032B00F290
:10304400A480DFE803F0799962024FF48073C4F836
:103054000032D7E90323C4F84425C4F848350123D2
:10306400A3604FF48011204602F072F80028F8D1D2
:10307400D7E90523C4F84425C4F8483528234FF478
:10308400802203FB09539A60DFF89CB1282202FBDB
:1030940009F218F0080AAB5805EB020013D1317895
:1030A400032910D0012940F086802160002B6FD0C5
:1030B400282202FB09F27168AA5821B9002A00F0FB
:1030C400BB8001226261282202FB09F2A918AA58D6
:1030D400002A00F0B18018F0040F1CBF00228A609F
:1030E40018F0400F06D1282202FB0952916841F0E2
:1030F40002019160282202FB0952916841F4007197
:1031040091609268C4F8042356E7D7E90323C4F80E
:103114004425C4F84835D7E90523C4F83425C4F850
:1031240038354FF48453C4F8003201232362282332
:10313400022203FB0953A6E718F0200FD7E9032363
:10314400C4F8442514BF4FF480724FF40072C4F8DD
:1031540048354FF0280315BFC4F80022C4F80022F4
:103164004FF48022022214BF03FB095303FB0953CB
:103174009A600123236287E7D7E90323C4F834253F
:10318400C4F838354FF48053CDE7DFF8A0B07DE7BD
:10319400026902B961612649DFF898A0204601F06E
:1031A400D7FF012210F4007F18BF626110EA0A0FF2
:1031B4001F49F3D07CE70121A160002B7FF478AF95
:1031C400006918B31B4B1AEA030F7FF471AF204652
:1031D400174901F0BDFF10F4007F8246F2D04FF092
:1031E4008071204601F0B4FFD4F8001280B111F4CC
:1031F400007003D10122824622626261CB05E1D5CF
:103204004FF48021204601F0A3FF04E06161D9E777
:103214000122226262614FF0000AD3E7F403002026
:1032240002029C010B00AD0B0000AD0B0400AD0BC2
:103234000202040002000400282101FB09550021B8
:10324400D4F8C424C4F8C42485F824108AB11149DC
:10325400114B12F0010F14BF8B469B46013112F043
:10326400020F18BF8B4612F0040F0C4A18BF934686
:10327400A2E618F0400F7FF49FAE3946204601F0D5
:10328400FBFE054A002808BF934695E6DFF810B018
:1032940092E600BF0000AE0B0100AD0B0200AE0BC6
:1032A4000A00AD0B70B55D4D022186B0284601F0D1
:1032B4004FFF4FF400710646284601F049FF584C71
:1032C400D8B1E6B9A3684FF08071C5F8083302237A
:1032D400A360A3682846C5F8043301F039FF18B188
:1032E400D5F800329B0503D401224C4B1A625A6173
:1032F400012384F8233006B070BD002E58D0E56950
:103304006E060AD494F823303BB94549434801F08A
:10331400B3FE80F0010084F8230015F0040525D1E4
:103324003E4B94F82520C3F86051D3F86011C3F8DC
:103334005C51D3F85C1112B194F823205AB10022E5
:10334400C3F80022A260374AC3F808234FF400727E
:10335400354BC3F88021238CADF80430E368049323
:103364002369029363690593A36903932B4AD2F8F3
:10337400C4349807C2F8C4344AD459074AD4DA0783
:103384004AD494F823309B00DBB28DF8003094F8D3
:1033940025300BB984F82430E3695B0703D594F82E
:1033A4002330002BA7D0D4E9003168469847A2E720
:1033B4004FF48021284601F0CBFE94F82030ABB9BD
:1033C40094F8253053B94FF40072C5F80032A36065
:1033D400144BC5F80833144BC3F8802100238DF82F
:1033E400043094F821308DF80530B7E74FF40073BA
:1033F400C5F8003240F20223A36003F1CE73C5F88E
:103404000833A368C5F804330123AB602B6272E769
:103414000123BAE70223B8E70323B6E7009000507C
:10342400F403002002029C0100E100E0036803F0C1
:103434001F025B09026004D0012B034818BF00205F
:1034440070470248704700BF00288450002584500C
:10345400F7B5064601F0A6FE084601F0A3FE01A852
:103464000196FFF7E3FF0C4640F20D61019B2B4DE3
:1034740000EB8300D0F8003201942B400B43C0F8DA
:10348400003201A8FFF7D2FF019B012700EB830064
:10349400D0F800322B400B43C0F80032042001F076
:1034A400A3FC092501A80194FFF7C0FF019A036951
:1034B400D340DB0714D401A80196FFF7B7FF019BA3
:1034C400013D07FA03F3C360042001F08DFC30468C
:1034D40001F068FE042001F087FC15F0FF05E1D13E
:1034E40001A80194FFF7A2FF0123019A9340C3604E
:1034F400042001F079FC204601F054FE042001F080
:1035040073FC01A80194FFF791FF019A0369044831
:10351400D34003F00103C01A03B0F0BDF0F0FCFF88
:103524000100AD0B38B5EFF31185202383F3128826
:10353400BFF36F8F064B9C6801F058FE85F311882A
:10354400BFF36F8F2046BDE83840FDF727B900BFB1
:103554001C04002038B5094B53F82040013053F8BF
:103564002050A54200D838BD636823B1204601F03D
:1035740040FE0834F5E723689847FAE780590000CD
:10358400012270B52A4B032086B01A70FFF7E2FFC0
:1035940000F0D2FD01F049FE0420FFF7DBFF254CCB
:1035A400254D2646AE4204F1300410D300F002FB50
:1035B400204C224EAC4226D300F010FBFCF7C8FD91
:1035C4001F4A137B23F00103137306B070BD54F834
:1035D4000C3C059354F8103C049354F8143C0393A6
:1035E40054F8183C029354F81C3C019354F8203CC2
:1035F400009354E90A2354E90C0100F01BF954F830
:10360400303C5E65CDE7D4E90A23B3F1FF3F08BF40
:10361400B2F1FF3F05D052EA0301206803D101F063
:1036240016FE3034C6E73146183000F08BFCF8E75C
:1036340061040020F0570000F05700005F530000C1
:103644009801002008B50348034A0021121A01F02A
:10365400E8FD08BDF80000206404002000230122D6
:1036640070B586B0CDE904230F220193CDE902326F
:1036740014234FF4A0720E4D0E4E03FB00550E4959
:1036840006EBC016044602FB00110C4B30460095B5
:1036940000F0D0F8737B2C7423F004037373084B8D
:1036A400013403EBC423EE606B6006B070BD00BF51
:1036B4001C04002018010020680C00203152000076
:1036C40068040020BFB50020FFF744FF2C4B03F52E
:1036D400006282F3088883F30A880024E023294DDA
:1036E400294E85F82230EC772C766C76AC7685F80A
:1036F40020406B6A254F43F4E0236B6285F8234036
:10370400FDF71EF8FDF75EF94FF0FF33AB62EB6295
:10371400FDF7E4FAFDF77AF940F201121C4B1D4D56
:103724009A81B360C3E91844DC6601F04BFD0120C3
:10373400FFF710FF0220FFF70DFF00F06FFA164BA2
:1037440075610122059305231449CDE90332284606
:103754003B464FF48062CDE90144009400F06AF8DE
:1037640006466A7B284622F004026A7301F0ABFD28
:103774002046FFF773FF3A4631462846FDF7FEF828
:103784006804002000ED00E01C04002085350000E2
:103794001802002098010020085A0000A80D0020FB
:1037A40038B50446EFF31185202383F31288BFF361
:1037B4006F8F01F0D6FD48B10022826701F083FDCE
:1037C4002946BDE83840074800F0B0B9D4E90232D0
:1037D4009A4218BF0133A36085F31188BFF36F8F3A
:1037E40038BD00BF6204002013B5EFF3118120241B
:1037F40084F31288BFF36F8F846844B1013C846002
:1038040081F31188BFF36F8F002002B010BD52EA1C
:10381400030406D181F31188BFF36F8F6FF00F009B
:10382400F3E7CDE900230246014800F053F9ECE741
:10383400620400202DE9F043984685B000F1580356
:10384400C0E91633109B002603730423073222F0C9
:10385400070543730F9B01EB05090F468373494624
:10386400C0E906668660C6730446FCF703FE0E9B39
:10387400073020F00700A066C4E9187502930D9B79
:10388400A9EB000901930C9B4A4600933946434631
:103894002046FDF757F8054B66659B6803B1DB6E60
:1038A4004846E36605B0BDE8F08300BF1C04002071
:1038B40038B50D4D2B4653F8184F9C4200D004B92F
:1038C400EC68AB6838B95A7BD20604D1A26912B944
:1038D400DA897F2A05D89C4202D0204600F07AFA81
:1038E40023466B6138BD00BF1C04002008B590F965
:1038F4000D200146002A437B04DA03F07F0343735F
:1039040001F0A7FC044B9868431A58425841BDE89B
:103914000840FFF7CDBF00BF1C04002070B490F92D
:103924000D30427B002B29DBD30627D183692BBBC7
:10393400134962F07F0242730A4652F8184F9442C8
:1039440018BF2346CC6923B9C0E900242060C861AC
:103954000CE090F90E5093F90E60B5420AD0AE42D5
:1039640008DD5A68C0E9003210605860002070BC5D
:10397400FFF79EBF9C42E7D01B68E4E770BC70472A
:103984001C040020002A2DE9F0410E460CBF102132
:103994000821427B044611420FD141EA0203D209B5
:1039A40018D1437308291BD00120FFF781FFBFF30F
:1039B4005F8F637B23F060036373274B9B68A34291
:1039C40043D1EFF30583002B3FD13046BDE8F041EE
:1039D400FCF7FABE03F07F03437301F03AFCE1E71E
:1039E400A36813B1204601F03CFC04F1180001F077
:1039F400F5FCA56D04F15807AF4211D04FF0000853
:103A040075B1284601F02DFC05F1180001F0E6FC23
:103A14002846C5F87880FFF781FFA56DAF42EFD146
:103A24000D4DAB689C42BFD1EFF30583002BBBD097
:103A34000120FFF73DFF40F20112084B9A8100225A
:103A4400AB60C3E91822DA66B1E786F31188BFF3E5
:103A54006F8FBDE8F08100BF1C0400201802002015
:103A640070B590F90D200146002A437B04DA03F077
:103A74007F03437301F0EDFB154A4B7B104663F063
:103A84007F034B7350F8183FD469834208BF002367
:103A940023B9C1E900042160D1610CE091F90E5011
:103AA40093F90E60B5420ED0AE420CDD5868C1E900
:103AB4000030016059609068BDE87040431A584274
:103AC4005841FFF7F5BE9C42E3D01B68E0E700BF16
:103AD4001C040020F8B5124B0C46DDE906761146AD
:103AE4009868104A1060EFF31182202282F3128842
:103AF400BFF36F8F9D68284601F0BDFBB6F1FF3F11
:103B040008BFB7F1FF3F06D03A463346064905F1F0
:103B1400180000F017FA2046BDE8F840FCF754BE40
:103B24001C0400203C0400205F53000049B9EFF35B
:103B3400058030B9054B5A699B689A4201D0FCF75D
:103B440043BE81F31188BFF36F8F70471C040020BC
:103B540010B5EFF31184202282F31288BFF36F8F24
:103B6400427B510704D484F31188BFF36F8F10BDD7
:103B740022F004024273FFF7D1FE2146BDE8104053
:103B84000148FFF7D3BF00BF62040020034648B9D1
:103B9400EFF3058232B9064A51699268914201D025
:103BA400FCF712BE83F31188BFF36F8F704700BF19
:103BB4001C040020EFF31181202383F31288BFF348
:103BC4006F8F054B9A68D37B013BD37381F31188C4
:103BD400BFF36F8F704700BF1C04002038B5EFF3AC
:103BE4001185202484F31288BFF36F8F0A4B0020C1
:103BF4009A68D37B0133D373FFF75AFE85F3118898
:103C0400BFF36F8FEFF3118084F31288BFF36F8FCC
:103C1400BDE83840FFF7BABF1C040020024B03F193
:103C24001802C3E9062270471C040020F8B5EFF31C
:103C34001185202383F31288BFF36F8F1949886895
:103C4400437B03F07F03437301F003FB08468B6857
:103C54005A7B62F07F025A7350F8182FCC69824263
:103C640008BF002222B9C3E900042360CB610CE041
:103C740093F90E6092F90E70BE420ED0B7420CDD7D
:103C84005168C3E900210B6053600120FFF710FE67
:103C94002846BDE8F840FCF797BDA242E3D012687D
:103CA400E0E700BF1C04002050EA01032DE9F041C5
:103CB40005460E4603D1FFF7B9FF00202BE0831C15
:103CC40071F1FF3329DB01F09EFB2C18EFF311880F
:103CD400202383F31288BFF36F8F124F124BB868FF
:103CE4001860FFF703FEB86810492A4633461830B7
:103CF40000F028F9BA684046537B43F0100353732D
:103D0400FCF762FD01F07FFB201A63EB030301283B
:103D140073F10003D1DBBDE8F0816FF00104241AD4
:103D2400D4E700BF1C0400203C0400205F530000C3
:103D3400B1F1FF3F08BFB0F1FF3F08B506D10A4B10
:103D4400986801F0CFFA4FF0FF3008BDFFF7ACFFE1
:103D54004FF47A7147F6FF730022C0FB0132D80B8F
:103D640040EA4240F1E700BF1C040020014B986880
:103D7400704700BF1C0400200122044BC01A044BEE
:103D8400C0105843034B1A54704700BF98020020D8
:103D9400ABAAAAAA62040020C3897F2B12D80A4BBB
:103DA4001B6863B1094B90F90E201B689A4209DB2A
:103DB400437BDB0606D1064BC31A18BF012303F06D
:103DC400010070470023FAE7440400204004002067
:103DD4001801002070B50E4B0E4C1E7C054606EBF8
:103DE400460304EBC304204601F0F8FA00220A4B10
:103DF40028469A55FFF7D0FF48B1084B2046BDE846
:103E040070401A680649013AD31700F09BB870BD98
:103E14001C040020980200206204002044040020B6
:103E24007D3D000038B5EFF31185202383F312881C
:103E3400BFF36F8F104B114A9C681068A04206D1E3
:103E4400FFF7C8FF85F31188BFF36F8F38BD0021DA
:103E54001B7C11600A4AD35C002BF3D02046FFF789
:103E64009BFF0028EED0637BDB0602D12046FFF7E0
:103E7400F7FD2046E4E700BF1C0400203C040020BA
:103E84006204002008B50648064A0749121A01F0E0
:103E9400CAF9BDE80840054A0549064801F0C3B916
:103EA40000000020F6000020445A0000000000003A
:103EB400445A000000000020034B1B680BB9FEF7B6
:103EC4007FB90020704700BF4804002030B570B1AE
:103ED4000B4B5B6898420AD0036843B1D3E90421D1
:103EE400D0E90445121941EB0501C3E90421D0E9E5
:103EF400003213605A600023C0E9003330BD00BFB4
:103F0400E400002010B50E4B1C689C4204D1FFF75E
:103F1400D3FF6FF0004010BDFFF7CEFF002CF8D0A8
:103F2400D4E904321B1A62EBE072B3F1004F72F170
:103F34000001EEDA002AACBF18460020EBE700BF10
:103F4400E4000020B3F1FF3F08BFB2F1FF3FF8B532
:103F540004461D4616465ED08160EFF31187202388
:103F640083F31288BFF36F8F013275F1FF3324DAC4
:103F74006FF001032D49D1E900209B1A4FF0FF3265
:103F840062EB00009E1B60EB0500012E70F1000344
:103F940001DA01260020C4E90460254ED6F800C0E9
:103FA4007568B44508BF4FF0000CBCF1000F0DD18B
:103FB400C4E900652C6074601CE0FFF77DFF0136E6
:103FC40045F10005361845EBE070E4E7DCE9042030
:103FD400D4E90431934271EB000E1DDAD21ADCF8F5
:103FE400043060EB0100CCE90420C4E900C31C6088
:103FF400CCF804403368B34209D09C4207D10D4B3E
:104004001C6824B9FFF77EFF2146FEF7ABF887F35F
:104014001188BFF36F8FF8BD9B1A61EB0001AC45AB
:10402400C4E90431C4D0DCF800C0BEE7B00200200B
:10403400E4000020480400202DE9F84FEFF3118C30
:10404400202383F31288BFF36F8FDFF8B0A0DFF86B
:10405400B0900024C9F80000DAF8000000255045AB
:1040640008BF0020274FE046D7E90021D9F80030E7
:1040740078B3D0E9046C4FEAE37EB3427EEB0C0BD9
:1040840005DAF61A6CEB0E04C0E9046421E0B218F8
:1040940041EBE671C0E90445C7E90021FFF716FFCB
:1040A40088F31188BFF36F8F83689847EFF3118803
:1040B400202383F31288BFF36F8FD9F80030DAF826
:1040C40000009B1B5045C446C9F80030CBD1D7E94A
:1040D400002100249A1841EBE373C7E90023C9F8CF
:1040E4000040FFF70FFF2146FEF73CF888F31188E4
:1040F400BFF36F8FBDE8F84FFFF794BEE4000020D4
:1041040048040020B002002010B5EFF311842023EE
:1041140083F31288BFF36F8FFFF7CEFE0346054A81
:10412400D2E90001181841EBE37184F31188BFF35D
:104134006F8F10BDB0020020014800F05FBB00BFCC
:104144000D5A00002DE9F04F43688DB015468046A6
:10415400029383789A0740F10D8100240E78002E93
:1041640000F00A81252E0BD04B1C039301344146E9
:104174003046029B98470028C0F2F6800399EDE789
:104184004E788B1C252E0393F0D00027B946BB46EE
:10419400BBF11F0F38D8A6F12003102B0AD8DFE893
:1041A40003F02A0909300909092109090928092DF7
:1041B40009091F00A6F13003092B33D92A2E37D160
:1041C4001BF0400F55F8043B40F08280002BA7BF42
:1041D4004BF0200B9946C3F100094BF0280B01E08A
:1041E4004BF0010B039B13F8016B0393002ECFD10B
:1041F40030E04BF0020B4BF0040BF3E74BF0080BF1
:10420400F0E74BF0100BEDE7BBF17F0F19D8A6F1E7
:104214003003092BD2D81BF0400F03D00A2101FB35
:104224000737DFE70A214BF0200B01FB0939D9E7F7
:104234002E2E06D11BF0400F40F09E804BF0400B19
:10424400D0E76C2E31D02BD8682E36D06A2E3CD0D5
:104254004C2E3AD0002F46F02003B8BF2BF040027A
:10426400A3F16501BCBF00271FFA82FB022901D913
:10427400612B2FD107350727DFF8ACA225F00705FE
:1042840008351BF0080F66D00AEB070B56465E454F
:1042940063D1A4EB0A0AA9EB070906EB0A026FE152
:1042A400742E9FD07A2E9DD0D4E71BF0800F18BFB8
:1042B4004BF4007B4BF0800B94E71BF4807F18BF1A
:1042C4004BF4007B4BF4807B8CE74BF4207B89E739
:1042D4001F4687E7A6F16301122900F2F080DFE8A8
:1042E40011F013004F00EE00EE00EE00EE004F0060
:1042F400EE00EE00EE00EE00EE00FE00E900EE003F
:10430400EE001B00EE00AF0055F8043B01270DF151
:10431400180A8DF81830B4E755F804AB834BBAF19A
:10432400000F08BF9A461BF0400F504614BF394691
:104334004FF0FF3101F080F80746A2E74146202004
:10434400029B984700280FDB013EB742F6D34C444A
:10435400B146A41B98E74E46F7E7414616F8010B11
:10436400029B9847002892DA98F8023043F004033D
:1043740088F802304FF0FF3420460DB0BDE8F08FCE
:104384001BF0800F34D01BF4007F2CD0073525F0B0
:104394000705AA4669685AF8080B2BF0100500298E
:1043A400ADB237DA404245F4806561EB41010DF16D
:1043B400180B0A235A4601F04BF8A0EB0B030193A8
:1043C4006B0662D5019B25F001019F4289B240F33F
:1043D400A180002E00F0998015F0100240F09C801E
:1043E400BB460D4623E0AA465AF8040BC117D4E78E
:1043F400AA461BF4807F5AF8041B01D10846F5E74E
:104404001BF4007F19BF48B241F3C01108B241F355
:10441400C031C2E750EA0103C9D11BF0400FC6D036
:10442400002FC4D12BF01102BB46019795B240F284
:10443400064115EA01021CBF0BF1010B00222CE01E
:104444002BF010020A231FFA82FB1BF0800C49D0C8
:104454001BF4007115BF0735AA4625F007055AF865
:10446400040B1EBFAA4669685AF8080B50EA0105F6
:1044740045D12BF016051BF0400FADB242D0002FF2
:1044840040D12BF01702019795B215F0100248D0D5
:10449400019B002E42D103F1010B29075AD4EB07EB
:1044A40006D5D9456FDDA9EB0B030199CB465F18FF
:1044B4005B4649E04BF0100B10237826C5E7782BB8
:1044C40004D1C6F1780343F01003BEE7414625202A
:1044D400029B98470028FFF647AF023447E60823BB
:1044E4000026B2E7AA461BF480715AF8040BBDD02B
:1044F4001BF400711ABFC0B2614680B2B6E72BF05C
:10450400060295B20DF1180B54E725F01105BB46D0
:10451400ADB28CE70D46B8E73B460D4603F1020BFE
:10452400BBE7DDF804B082E73C5A0000355A0000CE
:10453400CDE9043241462020029B98470028FFF62B
:1045440013AF049B059A01339945F1DCA4EB0B01ED
:104554009B46CC180AB341463020029B984700285A
:10456400FFF602AF8EB901342744391B019B9942EF
:1045740024DC1D4655BB019AA9EB0B095546224480
:104584001446914433E0019F92E702344146304699
:10459400029B98470028E7DAE6E640F206410D421E
:1045A400E2D015F0020F04F10104414614BF2B20A0
:1045B400202015F4806F18BF2D20E9E741463020F4
:1045C400029B013498470028CFDACDE606AB013DC3
:1045D4004146585D029B98470028CBDAC4E6414621
:1045E4002020029B013498470028FFF6BDAEA9EBBA
:1045F4000403002BF3DCC1E5704703460A46F0B41C
:104604001979DB8800681343DC028768066906D5DC
:1046140013F4402F03D0DA0748BF83F44023012565
:1046240034688D4023F48012DB074CBF2C43AC4329
:1046340034603B68F0BC1847836800EBC101B3F5F4
:10464400004F2CBF51F8220031F81200704700EBE4
:10465400C1018068B0F5004F2CBF41F8223021F829
:1046640012307047012208B5FFF7E6FFD04008BDBD
:10467400836800EBC101B3F5004F08D34B681AB14E
:1046840043F001034B60704723F00103FAE74B88C2
:104694001AB143F001034B80704723F00103FAE79A
:1046A40053000122FFF7D3BFB0F5004F34BF0423FA
:1046B4000823481C0833A0EBD300B0FA80F0C0F103
:1046C4001F0070472DE9F0410D4686680446FFF748
:1046D400C9FFB6F5004F014601D3012832D0304658
:1046E400FFF7E2FF04EB80010E6996B90122E3684B
:1046F40082401343E36002220D612B462946204683
:10470400FFF7A5FF032229462046BDE8F041FFF745
:104714009EBF022231462046FFF78EFF074603461E
:1047240029462046FFF793FF0322334629462046B5
:10473400FFF78DFF39462B462046FFF788FF0222FC
:104744003146E1E7BDE8F081B2F5802F2CBF0823A4
:1047540004232DE9F0410026D21A8C18CD1D25F032
:10476400070524F00704641BE4080560214620467D
:10477400AC60EE60FFF798FF421D9200013002F139
:1047840007074FEAD7073146A2F1100205F11000DE
:10479400B8BF324600F048FE3A4631462846FFF795
:1047A4007FFF3346324631462846FFF750FFA4EBDD
:1047B4000708284631460122FFF75AFF4246394688
:1047C400FFF76EFF3B46324639462846FFF73FFF68
:1047D40021462846FFF764FF4346324621462846D1
:1047E400FFF735FF214628460122FFF741FF3946EE
:1047F400BDE8F041FFF766BF002070470FB407B56E
:1048040004A951F8040B0191FBF7EAFC03B05DF82D
:1048140004EB04B07047038B13F0070305D103685E
:10482400002B0CBF002003207047022B05D1408BC6
:10483400B0FA80F0400980007047012B05D103686D
:10484400002B0CBF0020052070470020704710B5D6
:104854000C4600B111B96FF0150010BD081D00F031
:1048640093F80028F9D1A368032BF6D9F3E72DE9CF
:10487400F0410D4607461946281D90461E4600F095
:1048840094F8044638B13346424629463846A4468D
:10489400BDE8F0416047BDE8F08110B4EFF3118248
:1048A400202484F31288BFF36F8F416110BC01216F
:1048B400FBF7C8BC38B50C46054658B151B10B6876
:1048C40043B14B6833B11C22002100F0ADFD002040
:1048D4002C6138BD6FF01500FBE770B505460E4638
:1048E400FFF7B5FF041E14DBEFF31182202383F3DB
:1048F4001288BFF36F8F4FF6FF716B8B2C8B8B423B
:1049040004F0070407D182F31188BFF36F8F6FF0AF
:104914000A04204670BD022C0CD101336B8382F350
:104924001188BFF36F8F0023224631462846FFF7D4
:104934009EFFEEE7062C14D8DFE804F004131313EB
:10494400041A0400002333606B683BB9C5E90066B0
:10495400ACB902212846FBF775FCDAE71E606E60ED
:10496400F6E782F31188BFF36F8F6FF00404D0E78A
:1049740082F31188BFF36F8F6FF08504C9E782F368
:104984001188BFF36F8FC4E7034658B1426802F041
:104994000302012A03D0032A04D1026812B10020C1
:1049A400986070476FF0150070474268034602F044
:1049B4000302032A4FF00002816014BF104600680E
:1049C4005A6070477047012801D1EFF30583FEF761
:1049D400A9BD01460068FFF7F6BF08B5FBF746FD21
:1049E400BDE80840FBF766BD00210120FFF7EBBFDF
:1049F400036E83F30B88704761B662B680F3118847
:104A0400BFF36F8F704708B572B6002383F3118824
:104A1400BFF36F8FFCF770FA50B1BFF34F8F30BF05
:104A240000BF00BF00BF00BF00BF00BF00BF00BF8A
:104A340062B6BFF36F8F08BD10B5044672B600238B
:104A440083F31188BFF36F8FFCF756FA50B1BFF3AD
:104A54004F8F20BF00BF00BF00BF00BF00BF00BF1B
:104A640000BF00BF84F31188BFF36F8F62B610BD1F
:104A740040E800F313F4803FD8B208BF6FF015008C
:104A8400704730B50C684B6885B00A894D8900942D
:104A9400013B24F01F04234402F01F0242EA4512A2
:104AA40023F01F0369468DF808200393FBF7E4FF06
:104AB40005B030BD08B5FCF79FF9002008BD0B46D2
:104AC4004FF050220121C2F81416002118470C227D
:104AD4000369C9B201FB0233986F00F00700704705
:104AE40070B5C9B20369EFF31185202484F31288E9
:104AF400BFF36F8F0C2606FB0134A46F14F0C004BF
:104B040008D0A24206D085F31188BFF36F8F4FF00F
:104B1400FF3070BD012206FB01339A6785F31188CB
:104B2400BFF36F8F436803EBC1035B6898470020B2
:104B3400EFE78022FFF7D4BFF8B5069F0469C9B236
:104B4400EFF31186202585F31288BFF36F8F0C25B0
:104B540005FB0144A56F05F0070CBCF1010F0CD156
:104B6400A76786F31188BFF36F8FC4E91C234368DA
:104B740053F8313098470020F8BD05F0C005AF4226
:104B840086F31188BFF36F8F0CBF6FF077004FF07F
:104B9400FF30F1E713B580240094FFF7CDFF02B096
:104BA40010BD10B41C240069CBB203FB0400002127
:104BB40010BC10470320FDF76BBC0220FDF768BC56
:104BC4000020FDF765BC032000F0D4B9022000F0FA
:104BD400D1B9002000F0CEB91046FEF7E1BD43681C
:104BE40000205B681B690B607047436802EA0100A0
:104BF4005B6821EA020198600020D960704743682D
:104C040000205B6899607047436800205B68D96046
:104C1400704743685A68536821EA03000B40906068
:104C24000020D360704710B503695868F8B1884212
:104C340019D19C680868A142586000D1986000208E
:104C440008602AB15A680A609A68596002B9996082
:104C5400002010E0814206D10868206098688142F3
:104C6400EDD19C60EBE7044600680028F2D1002AED
:104C7400E8D16FF0150010BDCA07436816D4C1F31C
:104C8400420102290AD003290CD001290ED14FF088
:104C9400CC721B680020C3F8242570474FF0C8620B
:104CA4001B68F7E74FF07F621B68F3E76FF01500AE
:104CB4007047002201210920FBF70ABE13B5002129
:104CC40001AA044600F00AF8002805DB019B2268CB
:104CD40019791868FCF708FE02B010BD30B54368B6
:104CE4001360057A446804EBC504A34202D36FF051
:104CF400010030BD5C798C4201D00833F0E700201C
:104D0400F7E743681B68D3F88004C3F8800470474E
:104D1400436802691B68D3F8100150B1002052693E
:104D240012780A70C3F81001D3F8102101221A6016
:104D340070474FF0FF30704702680346D2F85801BD
:104D440040B95B689B0706D4D2F82001003818BF2D
:104D5400012070470120704742681368D3F8041398
:104D6400C90517D5D3F82011A1B1EFF31181202083
:104D740080F31288BFF36F8FD3F8200130B1002085
:104D8400C3F82001D3F820010120D86081F31188F1
:104D9400BFF36F8F5268D20614D5EFF3118220212E
:104DA40081F31288BFF36F8FD3F8581111B100212A
:104DB400C3F800154FF48001C3F8081382F3118877
:104DC400BFF36F8F7047002200F150039B009BB22A
:104DD40003F1502303F580331A601B68704708B54C
:104DE400FDF75CF808BD004700F0E8B940F000406A
:104DF400C1F88000704740F00040C1F8800070475F
:104E040040F00040C1F88000C2F880007047FDF710
:104E1400FFBB73B503285DD8DFE800F00218263421
:104E24004FF050230222C3F808230122DA60002243
:104E3400C3F80421D3F80431002401238DF807308A
:104E4400032847D8DFE800F02C4865824FF0502350
:104E54000122C3F808235A600022C3F80021D3F8C2
:104E640000310DF10704E8E74FF050234FF40072CE
:104E7400C3F8082301225A620022C3F82421D3F87C
:104E84002431D9E74FF050234FF48072C3F808233C
:104E94000122DA610022C3F82021D3F82031CBE7C4
:104EA40042F210754FF05026D6F8183403F48033CC
:104EB40034B97BB10120FFF797FF013DF4D109E03C
:104EC400D6F8182402F0030222701BB19DF80700E3
:104ED4000128F0D002B070BD42F210754FF0502698
:104EE400D6F80C3403F480333CB9002BF2D0012003
:104EF400FFF77AFF013DF3D1ECE7D6F80C2402F07A
:104F040001022270002BE5D09DF807000128EFD0A4
:104F1400E0E742F210754FF05026D6F85C3403F403
:104F240080333CB9002BD5D00120FFF75DFF013D54
:104F3400F3D1CFE7D6F85C2402F001022270002BF3
:104F4400C8D09DF807000128EFD0C3E742F21075DE
:104F54004FF05026D6F85434DB03BBD52CB90120CE
:104F6400FFF742FF013DF5D1B4E79DF807000128A2
:104F7400F6D0AFE7FFF74DBFF7B51646DDE90847B2
:104F8400019001A81D46FDF749FB019BB6F1000CF9
:104F940018BF4FF0010C00EB83000B1E18BF012358
:104FA400002D43EA4C0314BF4FF00C0C4FF0000CDF
:104FB400002C43EA0C0314BF4FF4706C4FF0000C48
:104FC400002F43EA0C0314BF4FF4403C4FF0000C95
:104FD400D0F8002243EA0C0322EA030301B1097862
:104FE4000EB13678760019430DB12D78AD003143FA
:104FF4000CB12478240229430FB13F783F040C43B9
:105004003C43C0F8004203B0F0BD1FB50DF10F03DF
:10501400019300238DF80F101A4619460093FFF7E9
:10502400ABFF05B05DF804FB38B5054608460C46F1
:10503400FDF748FBB0B10846FDF738FB90B90846C8
:10504400FDF728FB01232A688340C2F808332A6845
:1050540003B202EB8303D3F8102522F00302C3F852
:10506400102538BD2046BDE838400021FFF7CDBFEC
:10507400FDF7ACBBFFF7D8BF91F820200346032A05
:1050840029D8DFE802F0212519028A68500304D5E3
:10509400D3F84C250869904207D18A6852031AD480
:1050A400D3F84C258969914215D000200622C3F813
:1050B4000005C3F800257047D3F84C2508699042D1
:1050C400F3D1D3F83C25EDE7D3F84C250969EAE799
:1050D400D3F83C25FAE70120704770B5C37B04463A
:1050E4000BB1837BC3B9A368B3F17F6F1BD3236870
:1050F400222B13D16368232B17D10B25A67B5EB912
:105104002B46032231462068FDF77AFE2B46032204
:1051140031466068FDF774FE012070BD232B04D175
:105124006368222BE8E70625E8E70020F5E730B5B9
:105134000124A2F58075AD08AC400C4207D081581B
:1051440029B10021815082581A6822431A6030BD67
:10515400002313B50C4601934FF4A47201ABFFF77F
:10516400E6FF21464FF48272FFF7E1FF21464FF438
:105174009272FFF7DCFF21464FF4A872FFF7D7FFC6
:1051840021464FF4A672FFF7D2FF21464FF4B072C6
:10519400FFF7CDFF4FF4AE722146FFF7C8FF019829
:1051A40002B010BD07B5019001A8FEF73FF9012335
:1051B400019A9340836003B05DF804FB08B1FBF7E8
:1051C400CDBE7047704740B1C368587810F00100F5
:1051D4001EBF1878B0FA80F040097047EFF31183CE
:1051E400202383F31288BFF36F8FFEE708B5FFF720
:1051F400F5FF10B5D0E9003433B90020E2685378E4
:1052040043F00103537010BD204698470028F4D0A2
:105214000028B8BF4042FF28A8BFFF20E3681870E9
:10522400ECE700F001B900F0F2B87047202408B5AB
:10523400EFF3118384F31288BFF36F8FFFF7E3FB5F
:10524400F6E7EFF30580003818BF01207047FEF73A
:105254007FBCD0E9003213605A600023C0E90033F8
:10526400704708B5FFF7F5FF437B23F00203437350
:105274000023836008BD38B504460D46FEF736FBAF
:10528400637B43F002036373E5B1A5602B689D4221
:1052940009D16B68C4E900531C606C6012E06A6851
:1052A4009A42F6D01B68002BF3D094F90E2093F9A0
:1052B4000E108A42F3D09142F1DD5A68C4E90032FB
:1052C40014605C6038BD10B5EFF31184202383F3C0
:1052D4001288BFF36F8FFEF721FB84F31188BFF3AD
:1052E4006F8F10BD10B50446183000F077F8EFF357
:1052F4001181202383F31288BFF36F8F627B12F036
:10530400100204D081F31188BFF36F8F10BD2046C3
:10531400BDE81040FEF736BB38B50446EFF31185FF
:10532400202383F31288BFF36F8F437B13F0280F7E
:105334000BD183680BB1FFF794FF637B51B903F082
:10534400FB0320466373FEF7E9FA85F31188BFF384
:105354006F8F38BD03F0EB03F3E701211838FFF733
:10536400DBBF38B5EFF31185202383F31288BFF335
:105374006F8F0468A0420DD034B12046FFF771FF4F
:1053840004F1180000F02AF885F31188BFF36F8F39
:10539400204638BD0024F7E7EFF31181202282F381
:1053A4001288BFF36F8F027BD2070CD581F311886B
:1053B400BFF36F8F002383F31188BFF36F8F042330
:1053C400184602DF7047437B1B0704D581F311881D
:1053D400BFF36F8F70470122FEF7D4BA10B5EFF315
:1053E4001184202282F31288BFF36F8F03683BB1CC
:1053F400FEF76CFD002084F31188BFF36F8F10BD9E
:105404006FF01500F7E708B5FEF77EFE08BD0A4405
:10541400431E914200D1704710B511F8014B9142DF
:1054240003F8014FF9D110BD02440346934200D161
:10543400704703F8011BF9E70246014410B58A429C
:10544400134603D01C780132002CF8D1181A10BD71
:10545400F0B5C3F13707044603F01F031046FFB24B
:10546400082BE6B232D0102B3DD06508A40845EADB
:10547400C17544EA81748A082D1942EB5102290945
:1054840041EA02716D1842EB1212290A41EA0261E3
:105494006D1842EB1222290C41EA02416D1842EBCD
:1054A4001242AD1842F10002EC0844EA4274D108F9
:1054B40004EB8402A6EB4205EDB2092D0CD90134AC
:1054C400A5F10A0541F10001EDB212E0E40806F08D
:1054D400070544EA4174C908303554EA010200F86A
:1054E400015BBDD1F0BD240906F00F0544EA017447
:1054F4000909092D84BFED19EDB2EDE701480068F3
:0855040070470000B80200200E
:10550C00C50E000000000000850F00000000000028
:10551C00A9100000645500007D1400008C5500009B
:10552C007D140000785500008D1A0000A055000075
:10553C002D130000000000000920000000000000F6
:10554C00490E000000000000250E000000000000C5
:08555C009D160000B45500008B
:10556400AB5900005458000074580000EC000020AF
:1055740024030020B659000090580000C0580000D1
:10558400EE000020C8030020C2590000A858000003
:10559400C0580000F0000020D4030020E0590000AF
:1055A4004059000074590000F40000203C00002021
:1055B400CE590000E458000028590000F2000020F1
:0455C40014000020AF
:1055C80000000000ED49000000000000ED49000067
:1055D80000000000ED49000000000000ED49000057
:1055E80000000000ED49000065250000EB4D0000BB
:1055F80000000000ED49000000000000ED49000037
:10560800A05500005D4D0000A9320000EB4D0000E0
:1056180000000000ED49000000000000ED49000016
:1056280000000000ED4900004D2C0000EB4D00008B
:1056380000000000ED49000000000000ED490000F6
:1056480000000000ED49000000000000ED490000E6
:1056580000000000ED49000000000000ED490000D6
:1056680000000000ED490000000000009920000043
:1056780000000000ED49000000000000ED490000B6
:1056880000000000ED49000000000000ED490000A6
:1056980000000000ED49000000000000ED49000096
:1056A80000000000ED49000000000000ED49000086
:1056B80000000000ED49000000000000ED49000076
:1056C80000000000ED49000000000000ED49000066
:1056D80000000000ED49000000000000ED49000056
:1056E80000000000ED49000000000000ED49000046
:1056F80000000000ED49000000000000ED49000036
:1057080000000000ED49000000000000ED49000025
:1057180000000000ED49000000000000ED49000015
:1057280000000000ED49000000000000ED49000005
:1057380000000000ED49000000000000ED490000F5
:1057480000000000ED49000000000000ED490000E5
:1057580000000000ED49000000000000ED490000D5
:1057680000000000ED49000000000000ED490000C5
:1057780000000000ED49000000000000ED490000B5
:1057880000000000ED49000000000000ED490000A5
:1057980000000000ED49000000000000ED49000095
:1057A80000000000ED49000000000000ED49000085
:1057B80000000000ED49000000000000ED49000075
:1057C80000000000ED49000000000000ED49000065
:1057D80000000000ED49000000000000ED49000055
:0857E80000000000ED49000083
:1057F0000338FDD8704700008C55000017001100D9
:105800008C5500001C00010000000020000000007A
:1058100006000100020000001C580000000000000B
:105820009859000006000000E0FF0F000000002073
:10583000A059000021000000E0FF0620950F0000A5
:10584000C34A0000000000003110000001100000F9
:10585000000000008D11000075100000C54B000015
:10586000D74B0000BF4B0000D14B0000B94B0000EC
:10587000CB4B00000D110000374B0000994B00008E
:1058800000000000D34A00000000000000000000FB
:10589000FFFF00000028845000000000010000000D
:1058A00000D0005000000000FFFFFFFF00258450E3
:1058B000000000000000000000D0005000000000C8
:1058C00011150000E34B0000EF4B0000034C0000FB
:1058D0000D4C0000174C00007D1300002B4C000005
:1058E00000000000009000500000000000000000D8
:1058F00000000000000098010000010110000000FD
:10590000B74C00000C590000FFFF00000090005051
:10591000185900000100000020590000020000009A
:1059200022001800230016007D4C0000000000003B
:105930004D1700000000000000000000DD16000010
:1059400000800050020000000000000050590000DC
:10595000008000505C590000010000006459000004
:1059600004000000140000001300040016060200EA
:1059700015060600154D0000011D0000074D000032
:105980000C5500000C550000445500004C5500001B
:105990006455000064550000464C4153485F300098
:1059A0005352414D5F300000000001636C6F636B28
:1059B0004035303030006770696F403834323830ED
:1059C00030006770696F40383432353030006932EA
:1059D0006340393030300000010203040506070B34
:1059E00075617274403830303000000000010101F0
:1059F0000000010000000020303030303030303006
:105A000030303030303000016D61696E002A2A2A52
:105A100020426F6F74696E67205A657068797220D2
:105A20004F53206275696C642076332E372E3020F8
:105A30002A2A2A0A00286E756C6C29002A666C6F67
:045A400061742A0063
:105A4400FD47000000000000B94A0000000000000B
:105A540000000000140000201400002001000000D9
:105A640001000000240000202400002000000000A9
:105A740001000000000000004F04002000000000AE
:105A840000C20100000103000000000060040020C7
:105A94005F040020000000000090D003FFFFFFFF20
:105AA40000000000000000000000000000000000F2
:105AB40000000000000000000000000000000000E2
:105AC40000000000000000000000000000000000D2
